{
  "_format": "hh-sol-artifact-1",
  "contractName": "Transfer",
  "sourceName": "contracts/EasyTransfer.sol",
  "abi": [
    {
      "inputs": [],
      "stateMutability": "nonpayable",
      "type": "constructor"
    },
    {
      "inputs": [],
      "name": "displayList",
      "outputs": [
        {
          "components": [
            {
              "internalType": "uint256",
              "name": "id",
              "type": "uint256"
            },
            {
              "internalType": "address",
              "name": "from",
              "type": "address"
            },
            {
              "internalType": "address",
              "name": "to",
              "type": "address"
            },
            {
              "internalType": "uint256",
              "name": "amount",
              "type": "uint256"
            },
            {
              "internalType": "uint256",
              "name": "timestamp",
              "type": "uint256"
            }
          ],
          "internalType": "struct Transfer.Log[]",
          "name": "",
          "type": "tuple[]"
        }
      ],
      "stateMutability": "view",
      "type": "function"
    },
    {
      "inputs": [
        {
          "internalType": "address payable",
          "name": "to",
          "type": "address"
        }
      ],
      "name": "sendWEI1",
      "outputs": [],
      "stateMutability": "payable",
      "type": "function"
    },
    {
      "inputs": [
        {
          "internalType": "address payable",
          "name": "to",
          "type": "address"
        }
      ],
      "name": "sendWEI2",
      "outputs": [],
      "stateMutability": "payable",
      "type": "function"
    }
  ],
  "bytecode": "0x60806040526001805534801561001457600080fd5b50336000806101000a81548173ffffffffffffffffffffffffffffffffffffffff021916908373ffffffffffffffffffffffffffffffffffffffff160217905550610d3d806100646000396000f3fe6080604052600436106100345760003560e01c80633b7609c114610039578063478a58db14610064578063b1f9abc114610080575b600080fd5b34801561004557600080fd5b5061004e61009c565b60405161005b91906108c9565b60405180910390f35b61007e6004803603810190610079919061092e565b6101c5565b005b61009a6004803603810190610095919061092e565b61048e565b005b60606002805480602002602001604051908101604052809291908181526020016000905b828210156101bc57838290600052602060002090600502016040518060a0016040529081600082015481526020016001820160009054906101000a900473ffffffffffffffffffffffffffffffffffffffff1673ffffffffffffffffffffffffffffffffffffffff1673ffffffffffffffffffffffffffffffffffffffff1681526020016002820160009054906101000a900473ffffffffffffffffffffffffffffffffffffffff1673ffffffffffffffffffffffffffffffffffffffff1673ffffffffffffffffffffffffffffffffffffffff16815260200160038201548152602001600482015481525050815260200190600101906100c0565b50505050905090565b6706f05b59d3b20000341061020f576040517f08c379a000000000000000000000000000000000000000000000000000000000815260040161020690610a2a565b60405180910390fd5b343373ffffffffffffffffffffffffffffffffffffffff163111610268576040517f08c379a000000000000000000000000000000000000000000000000000000000815260040161025f90610abc565b60405180910390fd5b600060646001346102799190610b0b565b6102839190610b7c565b9050600081346102939190610bad565b90508273ffffffffffffffffffffffffffffffffffffffff166108fc829081150290604051600060405180830381858888f193505050501580156102db573d6000803e3d6000fd5b5060008054906101000a900473ffffffffffffffffffffffffffffffffffffffff1673ffffffffffffffffffffffffffffffffffffffff166108fc839081150290604051600060405180830381858888f19350505050158015610342573d6000803e3d6000fd5b5060026040518060a0016040528060015481526020013373ffffffffffffffffffffffffffffffffffffffff1681526020018573ffffffffffffffffffffffffffffffffffffffff1681526020013481526020014281525090806001815401808255809150506001900390600052602060002090600502016000909190919091506000820151816000015560208201518160010160006101000a81548173ffffffffffffffffffffffffffffffffffffffff021916908373ffffffffffffffffffffffffffffffffffffffff16021790555060408201518160020160006101000a81548173ffffffffffffffffffffffffffffffffffffffff021916908373ffffffffffffffffffffffffffffffffffffffff160217905550606082015181600301556080820151816004015550506001600081548092919061048490610be1565b9190505550505050565b6706f05b59d3b200003410156104d9576040517f08c379a00000000000000000000000000000000000000000000000000000000081526004016104d090610ce7565b60405180910390fd5b343373ffffffffffffffffffffffffffffffffffffffff163111610532576040517f08c379a000000000000000000000000000000000000000000000000000000000815260040161052990610abc565b60405180910390fd5b600060646002346105439190610b0b565b61054d9190610b7c565b90506000813461055d9190610bad565b90508273ffffffffffffffffffffffffffffffffffffffff166108fc829081150290604051600060405180830381858888f193505050501580156105a5573d6000803e3d6000fd5b5060008054906101000a900473ffffffffffffffffffffffffffffffffffffffff1673ffffffffffffffffffffffffffffffffffffffff166108fc839081150290604051600060405180830381858888f1935050505015801561060c573d6000803e3d6000fd5b5060026040518060a0016040528060015481526020013373ffffffffffffffffffffffffffffffffffffffff1681526020018573ffffffffffffffffffffffffffffffffffffffff1681526020013481526020014281525090806001815401808255809150506001900390600052602060002090600502016000909190919091506000820151816000015560208201518160010160006101000a81548173ffffffffffffffffffffffffffffffffffffffff021916908373ffffffffffffffffffffffffffffffffffffffff16021790555060408201518160020160006101000a81548173ffffffffffffffffffffffffffffffffffffffff021916908373ffffffffffffffffffffffffffffffffffffffff160217905550606082015181600301556080820151816004015550506001600081548092919061074e90610be1565b9190505550505050565b600081519050919050565b600082825260208201905092915050565b6000819050602082019050919050565b6000819050919050565b61079781610784565b82525050565b600073ffffffffffffffffffffffffffffffffffffffff82169050919050565b60006107c88261079d565b9050919050565b6107d8816107bd565b82525050565b60a0820160008201516107f4600085018261078e565b50602082015161080760208501826107cf565b50604082015161081a60408501826107cf565b50606082015161082d606085018261078e565b506080820151610840608085018261078e565b50505050565b600061085283836107de565b60a08301905092915050565b6000602082019050919050565b600061087682610758565b6108808185610763565b935061088b83610774565b8060005b838110156108bc5781516108a38882610846565b97506108ae8361085e565b92505060018101905061088f565b5085935050505092915050565b600060208201905081810360008301526108e3818461086b565b905092915050565b600080fd5b60006108fb8261079d565b9050919050565b61090b816108f0565b811461091657600080fd5b50565b60008135905061092881610902565b92915050565b600060208284031215610944576109436108eb565b5b600061095284828501610919565b91505092915050565b600082825260208201905092915050565b7f596f752063616e206e6f742073656e64206d6f7265207468616e20302e35204560008201527f544820686572652e20576520686176652070726f766964656420616e6f74686560208201527f72206761746577617920746f207472616e73666572206d6f7265207468616e2060408201527f302e352045544800000000000000000000000000000000000000000000000000606082015250565b6000610a1460678361095b565b9150610a1f8261096c565b608082019050919050565b60006020820190508181036000830152610a4381610a07565b9050919050565b7f496e73756666696369656e742062616c616e636520696e20796f75722061636360008201527f6f756e7400000000000000000000000000000000000000000000000000000000602082015250565b6000610aa660248361095b565b9150610ab182610a4a565b604082019050919050565b60006020820190508181036000830152610ad581610a99565b9050919050565b7f4e487b7100000000000000000000000000000000000000000000000000000000600052601160045260246000fd5b6000610b1682610784565b9150610b2183610784565b9250828202610b2f81610784565b91508282048414831517610b4657610b45610adc565b5b5092915050565b7f4e487b7100000000000000000000000000000000000000000000000000000000600052601260045260246000fd5b6000610b8782610784565b9150610b9283610784565b925082610ba257610ba1610b4d565b5b828204905092915050565b6000610bb882610784565b9150610bc383610784565b9250828203905081811115610bdb57610bda610adc565b5b92915050565b6000610bec82610784565b91507fffffffffffffffffffffffffffffffffffffffffffffffffffffffffffffffff8203610c1e57610c1d610adc565b5b600182019050919050565b7f596f752063616e206e6f742073656e64206c657373207468616e20302e35204560008201527f544820686572652e20576520686176652070726f766964656420616e6f74686560208201527f72206761746577617920746f207472616e73666572206c657373207468616e2060408201527f302e352045544800000000000000000000000000000000000000000000000000606082015250565b6000610cd160678361095b565b9150610cdc82610c29565b608082019050919050565b60006020820190508181036000830152610d0081610cc4565b905091905056fea26469706673582212206e6dcd48c8247d57924331b81d868525bba8cb0d764db14ec34e11af0b43dd1b64736f6c63430008110033",
  "linkReferences": {},
  "deployedLinkReferences": {}
}